{
  "contractName": "DataStorage",
  "abi": [
    {
      "anonymous": false,
      "inputs": [
        {
          "indexed": true,
          "internalType": "uint256",
          "name": "id",
          "type": "uint256"
        },
        {
          "indexed": false,
          "internalType": "string",
          "name": "fileName",
          "type": "string"
        },
        {
          "indexed": false,
          "internalType": "uint256",
          "name": "timestamp",
          "type": "uint256"
        }
      ],
      "name": "ZipFileStored",
      "type": "event"
    },
    {
      "inputs": [],
      "name": "fileCount",
      "outputs": [
        {
          "internalType": "uint256",
          "name": "",
          "type": "uint256"
        }
      ],
      "stateMutability": "view",
      "type": "function",
      "constant": true
    },
    {
      "inputs": [
        {
          "internalType": "uint256",
          "name": "",
          "type": "uint256"
        }
      ],
      "name": "storedFiles",
      "outputs": [
        {
          "internalType": "string",
          "name": "fileName",
          "type": "string"
        },
        {
          "internalType": "string",
          "name": "encodedZipFile",
          "type": "string"
        },
        {
          "internalType": "uint256",
          "name": "timestamp",
          "type": "uint256"
        }
      ],
      "stateMutability": "view",
      "type": "function",
      "constant": true
    },
    {
      "inputs": [
        {
          "internalType": "string",
          "name": "_fileName",
          "type": "string"
        },
        {
          "internalType": "string",
          "name": "_zipData",
          "type": "string"
        }
      ],
      "name": "storeZipFile",
      "outputs": [],
      "stateMutability": "nonpayable",
      "type": "function"
    },
    {
      "inputs": [],
      "name": "getFileNames",
      "outputs": [
        {
          "internalType": "string[]",
          "name": "",
          "type": "string[]"
        },
        {
          "internalType": "uint256[]",
          "name": "",
          "type": "uint256[]"
        }
      ],
      "stateMutability": "view",
      "type": "function",
      "constant": true
    },
    {
      "inputs": [
        {
          "internalType": "uint256",
          "name": "_fileId",
          "type": "uint256"
        }
      ],
      "name": "getZipFile",
      "outputs": [
        {
          "internalType": "string",
          "name": "",
          "type": "string"
        },
        {
          "internalType": "uint256",
          "name": "",
          "type": "uint256"
        }
      ],
      "stateMutability": "view",
      "type": "function",
      "constant": true
    }
  ],
  "bytecode": "0x60806040526001805534801561001457600080fd5b50610e18806100246000396000f3fe608060405234801561001057600080fd5b50600436106100575760003560e01c8063439535191461005c578063bd8b09281461007a578063bfcd5289146100ac578063eae67627146100cb578063fcd5e1b1146100fc575b600080fd5b610064610118565b6040516100719190610b17565b60405180910390f35b610094600480360381019061008f9190610853565b61011e565b6040516100a393929190610a82565b60405180910390f35b6100b4610258565b6040516100c2929190610a4b565b60405180910390f35b6100e560048036038101906100e09190610853565b6104e6565b6040516100f3929190610ac7565b60405180910390f35b610116600480360381019061011191906107e7565b6105f9565b005b60015481565b600060205280600052604060002060009150905080600001805461014190610cb2565b80601f016020809104026020016040519081016040528092919081815260200182805461016d90610cb2565b80156101ba5780601f1061018f576101008083540402835291602001916101ba565b820191906000526020600020905b81548152906001019060200180831161019d57829003601f168201915b5050505050908060010180546101cf90610cb2565b80601f01602080910402602001604051908101604052809291908181526020018280546101fb90610cb2565b80156102485780601f1061021d57610100808354040283529160200191610248565b820191906000526020600020905b81548152906001019060200180831161022b57829003601f168201915b5050505050908060020154905083565b60608060006001805461026b9190610c32565b67ffffffffffffffff8111156102aa577f4e487b7100000000000000000000000000000000000000000000000000000000600052604160045260246000fd5b6040519080825280602002602001820160405280156102dd57816020015b60608152602001906001900390816102c85790505b5090506000600180546102f09190610c32565b67ffffffffffffffff81111561032f577f4e487b7100000000000000000000000000000000000000000000000000000000600052604160045260246000fd5b60405190808252806020026020018201604052801561035d5781602001602082028036833780820191505090505b5090506000600190505b6001548110156104d957600080828152602001908152602001600020600001805461039190610cb2565b80601f01602080910402602001604051908101604052809291908181526020018280546103bd90610cb2565b801561040a5780601f106103df5761010080835404028352916020019161040a565b820191906000526020600020905b8154815290600101906020018083116103ed57829003601f168201915b50505050508360018361041d9190610c32565b81518110610454577f4e487b7100000000000000000000000000000000000000000000000000000000600052603260045260246000fd5b602002602001018190525060008082815260200190815260200160002060020154826001836104839190610c32565b815181106104ba577f4e487b7100000000000000000000000000000000000000000000000000000000600052603260045260246000fd5b60200260200101818152505080806104d190610ce4565b915050610367565b5081819350935050509091565b6060600080831180156104fa575060015483105b610539576040517f08c379a000000000000000000000000000000000000000000000000000000000815260040161053090610af7565b60405180910390fd5b6000808481526020019081526020016000206001016000808581526020019081526020016000206002015481805461057090610cb2565b80601f016020809104026020016040519081016040528092919081815260200182805461059c90610cb2565b80156105e95780601f106105be576101008083540402835291602001916105e9565b820191906000526020600020905b8154815290600101906020018083116105cc57829003601f168201915b5050505050915091509150915091565b604051806060016040528083815260200182815260200142815250600080600154815260200190815260200160002060008201518160000190805190602001906106449291906106c7565b5060208201518160010190805190602001906106619291906106c7565b50604082015181600201559050506001547f2053d1d9d1f1089686bedc7ba22bd476caa9ec5c3c6df12865d2fe4d22f0320e83426040516106a3929190610ac7565b60405180910390a2600160008154809291906106be90610ce4565b91905055505050565b8280546106d390610cb2565b90600052602060002090601f0160209004810192826106f5576000855561073c565b82601f1061070e57805160ff191683800117855561073c565b8280016001018555821561073c579182015b8281111561073b578251825591602001919060010190610720565b5b509050610749919061074d565b5090565b5b8082111561076657600081600090555060010161074e565b5090565b600061077d61077884610b63565b610b32565b90508281526020810184848401111561079557600080fd5b6107a0848285610c70565b509392505050565b600082601f8301126107b957600080fd5b81356107c984826020860161076a565b91505092915050565b6000813590506107e181610dcb565b92915050565b600080604083850312156107fa57600080fd5b600083013567ffffffffffffffff81111561081457600080fd5b610820858286016107a8565b925050602083013567ffffffffffffffff81111561083d57600080fd5b610849858286016107a8565b9150509250929050565b60006020828403121561086557600080fd5b6000610873848285016107d2565b91505092915050565b6000610888838361097b565b905092915050565b600061089c8383610a2d565b60208301905092915050565b60006108b382610bb3565b6108bd8185610bee565b9350836020820285016108cf85610b93565b8060005b8581101561090b57848403895281516108ec858261087c565b94506108f783610bd4565b925060208a019950506001810190506108d3565b50829750879550505050505092915050565b600061092882610bbe565b6109328185610bff565b935061093d83610ba3565b8060005b8381101561096e5781516109558882610890565b975061096083610be1565b925050600181019050610941565b5085935050505092915050565b600061098682610bc9565b6109908185610c10565b93506109a0818560208601610c7f565b6109a981610dba565b840191505092915050565b60006109bf82610bc9565b6109c98185610c21565b93506109d9818560208601610c7f565b6109e281610dba565b840191505092915050565b60006109fa600f83610c21565b91507f496e76616c69642066696c6520494400000000000000000000000000000000006000830152602082019050919050565b610a3681610c66565b82525050565b610a4581610c66565b82525050565b60006040820190508181036000830152610a6581856108a8565b90508181036020830152610a79818461091d565b90509392505050565b60006060820190508181036000830152610a9c81866109b4565b90508181036020830152610ab081856109b4565b9050610abf6040830184610a3c565b949350505050565b60006040820190508181036000830152610ae181856109b4565b9050610af06020830184610a3c565b9392505050565b60006020820190508181036000830152610b10816109ed565b9050919050565b6000602082019050610b2c6000830184610a3c565b92915050565b6000604051905081810181811067ffffffffffffffff82111715610b5957610b58610d8b565b5b8060405250919050565b600067ffffffffffffffff821115610b7e57610b7d610d8b565b5b601f19601f8301169050602081019050919050565b6000819050602082019050919050565b6000819050602082019050919050565b600081519050919050565b600081519050919050565b600081519050919050565b6000602082019050919050565b6000602082019050919050565b600082825260208201905092915050565b600082825260208201905092915050565b600082825260208201905092915050565b600082825260208201905092915050565b6000610c3d82610c66565b9150610c4883610c66565b925082821015610c5b57610c5a610d2d565b5b828203905092915050565b6000819050919050565b82818337600083830152505050565b60005b83811015610c9d578082015181840152602081019050610c82565b83811115610cac576000848401525b50505050565b60006002820490506001821680610cca57607f821691505b60208210811415610cde57610cdd610d5c565b5b50919050565b6000610cef82610c66565b91507fffffffffffffffffffffffffffffffffffffffffffffffffffffffffffffffff821415610d2257610d21610d2d565b5b600182019050919050565b7f4e487b7100000000000000000000000000000000000000000000000000000000600052601160045260246000fd5b7f4e487b7100000000000000000000000000000000000000000000000000000000600052602260045260246000fd5b7f4e487b7100000000000000000000000000000000000000000000000000000000600052604160045260246000fd5b6000601f19601f8301169050919050565b610dd481610c66565b8114610ddf57600080fd5b5056fea2646970667358221220bd45ae42af6a2b16144b5b01136741cf51f0a4a15ca9b6503e76f37c7c47fd0d64736f6c63430008000033",
  "immutableReferences": {},
  "source": "// SPDX-License-Identifier: MIT\r\npragma solidity >=0.5.0 <0.9.0;\r\npragma experimental ABIEncoderV2;\r\n\r\ncontract DataStorage {\r\n    struct FileData {\r\n        string fileName;\r\n        string encodedZipFile;\r\n        uint256 timestamp; // Added timestamp for storing time and date\r\n    }\r\n\r\n    mapping(uint256 => FileData) public storedFiles;\r\n    uint256 public fileCount = 1; // Start IDs from 1\r\n\r\n    event ZipFileStored(uint256 indexed id, string fileName, uint256 timestamp);\r\n\r\n    function storeZipFile(string memory _fileName, string memory _zipData) public {\r\n        storedFiles[fileCount] = FileData(_fileName, _zipData, block.timestamp);\r\n        emit ZipFileStored(fileCount, _fileName, block.timestamp);\r\n        fileCount++;\r\n    }\r\n\r\n    function getFileNames() public view returns (string[] memory, uint256[] memory) {\r\n        string[] memory fileNames = new string[](fileCount - 1);\r\n        uint256[] memory timestamps = new uint256[](fileCount - 1);\r\n        \r\n        for (uint256 i = 1; i < fileCount; i++) {\r\n            fileNames[i - 1] = storedFiles[i].fileName;\r\n            timestamps[i - 1] = storedFiles[i].timestamp;\r\n        }\r\n        \r\n        return (fileNames, timestamps);\r\n    }\r\n\r\n    function getZipFile(uint256 _fileId) public view returns (string memory, uint256) {\r\n        require(_fileId > 0 && _fileId < fileCount, \"Invalid file ID\");\r\n        return (storedFiles[_fileId].encodedZipFile, storedFiles[_fileId].timestamp);\r\n    }\r\n}",
  "sourcePath": "C:\\Users\\user\\Desktop\\trial\\eagle-eye-app\\contracts\\DataStorage.sol",
  "compiler": {
    "name": "solc",
    "version": "0.8.0+commit.c7dfd78e.Emscripten.clang"
  },
  "schemaVersion": "3.4.16",
  "updatedAt": "2025-05-23T10:38:34.122Z",
  "networkType": "ethereum",
  "devdoc": {
    "kind": "dev",
    "methods": {},
    "version": 1
  },
  "userdoc": {
    "kind": "user",
    "methods": {},
    "version": 1
  }
}